:03000000020931C1
:0C093100787FE4F6D8FD75811202097889
:100B6B00320030002D003A00000102030405060795
:030B7B0008090A5C
:100B7E00120CA1120B29120A77120B4112080080D7
:010B8E00F86E
:010CA1002230
:100800007BFF7A0B796B7D027F01120A077BFF7AEF
:100810000B796D7D037F01120A07E50EC4540F901A
:100820000B7393FB7D047F01120A9AE50E540F901F
:100830000B7393FB7D057F01120A9A7BFF7A0B797C
:100840006F7D067F01120A07E50CC4540F900B73ED
:1008500093FB7D077F01120A9AE50C540F900B73EE
:1008600093FB7D087F01120A9A7BFF7A0B796F7DDB
:10087000097F01120A07E50BC4540F900B7393FB19
:100880007D0A7F01120A9AE50B540F900B7393FBBC
:100890007D0B7F01120A9A7BFF7A0B796F7D0C7FAB
:1008A00001120A07E50D540F900B7393FB7D0D7F2A
:1008B00001120A9AE50AC4540F900B7393FB7D044E
:1008C0007F02120A9AE50A540F900B7393FB7D0581
:1008D0007F02120A9A7BFF7A0B79717D067F0212E2
:1008E0000A07E509C4540F900B7393FB7D077F0241
:1008F000120A9AE509540F900B7393FB7D087F024F
:10090000120A9A7BFF7A0B79717D097F02120A071E
:10091000E508C4540F900B7393FB7D0A7F02120A03
:100920009AE508540F900B7393FB7D0B7F02020A2C
:010930009A2C
:050C9C00000000002231
:060C640000007F03DFFE2B
:010C6A002267
:060C6B0000007F06DFFE21
:010C71002260
:060C720000007F09DFFE17
:010C78002259
:060C790000007F0CDFFE0D
:010C7F002252
:060C800000007F0FDFFE03
:010C8600224B
:060C870000007F12DFFEF9
:010C8D002244
:060C8E0000007F15DFFEEF
:010C9400223D
:060C950000007F1BDFFEE2
:010C9B002236
:080BA7007F017E92DEFEDFFCFF
:010BAF002223
:080BB0007F027E27DEFEDFFC60
:010BB800221A
:080BB9007F027EBDDEFEDFFCC1
:010BC1002211
:080BC2007F037E52DEFEDFFC22
:010BCA002208
:080BCB007F037EE8DEFEDFFC83
:010BD30022FF
:080BD4007F047E7DDEFEDFFCE4
:010BDC0022F6
:080BDD007F057E12DEFEDFFC45
:010BE50022ED
:080BE6007F057EA8DEFEDFFCA6
:010BEE0022E4
:080BEF007F067E3DDEFEDFFC07
:010BF70022DB
:080BF8007F067ED3DEFEDFFC68
:010C000022D1
:080C01007F077E68DEFEDFFCC8
:010C090022C8
:080C0A007F077EFEDEFEDFFC29
:010C120022BF
:080C13007F087E93DEFEDFFC8A
:010C1B0022B6
:080C1C007F097E28DEFEDFFCEB
:010C240022AD
:080C25007F0A7E53DEFEDFFCB6
:010C2D0022A4
:080C2E007F0B7E7EDEFEDFFC81
:010C3600229B
:080C37007F0C7EA9DEFEDFFC4C
:010C3F002292
:080C40007F187E55DEFEDFFC8B
:010C48002289
:080C49007F247E01DEFEDFFCCA
:010C51002280
:080C52007F2F7EAEDEFEDFFC09
:010C5A002277
:080C5B007F3B7E5ADEFEDFFC48
:010C6300226E
:100B5700AD07AC06ED1DAE0470011C4E6005120C0E
:040B67003780F122C0
:100ABC00D3EF9400EE940040147D6F7C00ED1D701C
:0D0ACC00011CED4C70F7EF1F70E61E80E37B
:010AD90022FA
:100B2900C2A7C2A57F38120ADA7F0C120ADA7F0639
:080B3900120ADA7F01020ADA58
:100ADA00C2A7C2A5C2A68F807F057E00120ABCD219
:0B0AEA00A77F057E00120ABCC2A722F5
:100AF500C2A7C2A5D2A68F807F057E00120ABCD2EE
:0B0B0500A77F057E00120ABCC2A722D9
:100A07008D0F8B108A118912E50FBF010444808076
:100A17000244C0FF120ADAAB10AA11A912120B1076
:100A2700FF6017120AF574012512F512E43511F566
:0B0A3700117F057E00120ABC80DD224A
:100A9A008D0F8B10E50FBF01044480800244C0FF14
:100AAA00120ADAE5102430FF120AF57F057E0002E9
:020ABA000ABC74
:0E0B8F0081838587898B8D80828486888A8CFD
:090B9D0007080050213011031675
:100A4200C2B500C2B600D2B500E4FEEF1392B4EF15
:100A5200C313FFD2B600C2B6000EBE08EEE4FEED2E
:100A62001392B4EDC313FDD2B600C2B6000EBE0897
:040A7200EEC2B5001B
:010A7600225D
:1009BD00C2B500C2B600D2B500E4FDEF1392B4EF9C
:1009CD00C313FFD2B600C2B6000DBD08EE00E4FDA4
:1009DD00A2B4E433FFC43333335480FCEEC3134C61
:1009ED00FED2B600C2B6000DBD08E5C2B500D2B646
:0909FD0000C2B400D2B400AF0640
:010A060022CD
:100A7700E4FD7F8E120A42E4FCEC900B9693FF7420
:100A8700082CF8E6FD120A420CBC07ED7D807F8E2C
:030A9700020A420E
:100B4100E4FBEB900B8F93FF1209BD74082BF8A601
:050B5100070BBB07EDDE
:010B5600227C
:10093D00020B7EE493A3F8E493A34003F68001F247
:10094D0008DFF48029E493A3F85407240CC8C333BB
:10095D00C4540F4420C8834004F456800146F6DF8A
:10096D00E4800B0102040810204080900B9DE47E72
:10097D00019360BCA3FF543F30E509541FFEE4937F
:10098D00A360010ECF54C025E060A840B8E493A346
:10099D00FAE493A3F8E493A3C8C582C8CAC583CA71
:1009AD00F0A3C8C582C8CAC583CADFE9DEE780BE29
:010BA600004E
:100B1000BB010689828A83E0225002E722BBFE02E3
:090B2000E32289828A83E4932216
:00000001FF
