:03000000020800F3
:0C080000787FE4F6D8FD758135020847CA
:0B0D8A003F065B4F666D7D077F6F002A
:100C8100011400090B000102030405060708011DF8
:0B0C910000011E0002080000010A0024
:100CE700120E9CD2AF120CA6120E5D120B10120937
:0D0CF70013E50AD3940150F6120B4A80F168
:060E9C0075A0FFD29022B8
:0809EF008B2C8A2D892E8D2F1F
:1009F700E52FD394084003752F08753001E530D3F0
:100A0700952F5020AB2CAA2DA92E853082758300F7
:100A1700120AA8FDAF30120C587F017E00120CC9D4
:100A2700053080D9E530D3940850127D0AAF3012D3
:0D0A37000C587F017E00120CC9053080E7CD
:010A4400228F
:080989008B268A2789288D299D
:10099100ED252AFFE433FED3EF9408EE64809480C2
:1009A100400674089529F52A752B01E52BD3952A64
:1009B1005022AB26AA27A928852B82758300120A0B
:1009C100A8FDAF29120C587F017E00120CC9052920
:1009D100052B80D7E52BD3940850127D0AAF2B123B
:0D09E1000C587F017E00120CC9052B80E729
:0109EE0022E6
:100C5800E4F580EDD3940A501FEF9408501AC3743A
:100C6800089F5314E325E025E042148514A00000F2
:090C7800ED900D8A93F580002235
:100C2D00E4F580EDD3940A5021EF9408501CC37461
:100C3D00089F5314E325E025E042148514A000001D
:0B0C4D00ED900D8A934480F58000229A
:10091300E4F535E535B40800504D900924F828284E
:100923007302093C02094002094802094C020954B6
:10093300020958020960020964C2A28002D2A2C25B
:10094300A3C2A48022C2A28002D2A2D2A3C2A48044
:1009530016C2A28002D2A2C2A3D2A4800AC2A280DB
:1009630002D2A2D2A3D2A4C3740795352415F8E604
:10097300F5807F647E00120D95E4F5800535E5353D
:05098300C39408408E42
:01098800224C
:100B1000120D52E521C4540F900D8A93F515E5216D
:100B2000540F93F516751740E520C4540F93F5182C
:100B3000E520540F93F519751A40E51FC4540F931F
:0A0B4000F51BE51F540F93F51C226E
:100B4A00120D52E521C4540F900D8A93F515E52133
:100B5A00540F93F516751740E520C4540F93F518F2
:100B6A00E520540F93F519751A40E51FC4540F93E5
:0A0B7A00F51BE51F540F93F51C2234
:100B8400120D52E523C4540F900D8A93F515E523F5
:100B9400540F93F516751740E522C4540F93F518B6
:100BA400E522540F93F519751A40E524C4540F93A4
:0A0BB400F51BE524540F93F51C22F5
:100BBE00120D52E525C4540F900D8A93F515E525B7
:100BCE00540F93F516751740E523C4540F93F5187B
:100BDE00E523540F93F519751A40E522C4540F936B
:0A0BEE00F51BE522540F93F51C22BD
:070E5D00D28AD2AAD2AF2213
:0300130002088C54
:10088C00C0E0C0F0C083C082C0D075D000C000C032
:10089C0001C002C003C004C005C006C0077F147E9F
:1008AC0000120CC920B345050A7508007509002013
:1008BC00B3180509E509AE087002050814C39420A5
:1008CC00EE94035005120E3080E5E50AD3940340F4
:1008DC0003750A01E50AB40103120B4AE50AB402D6
:1008EC0003120B84E50AB40303120BBED007D00627
:1008FC00D005D004D003D002D001D000D0D0D0820B
:07090C00D083D0F0D0E032EF
:050EA200000000002229
:060E640000007F03DFFE29
:010E6A002265
:060E6B0000007F06DFFE1F
:010E7100225E
:060E720000007F09DFFE15
:010E78002257
:060E790000007F0CDFFE0B
:010E7F002250
:060E800000007F0FDFFE01
:010E86002249
:060E870000007F12DFFEF7
:010E8D002242
:060E8E0000007F15DFFEED
:010E9400223B
:060E950000007F1BDFFEE0
:010E9B002234
:080DA0007F017E92DEFEDFFC04
:010DA8002228
:080DA9007F027E27DEFEDFFC65
:010DB100221F
:080DB2007F027EBDDEFEDFFCC6
:010DBA002216
:080DBB007F037E52DEFEDFFC27
:010DC300220D
:080DC4007F037EE8DEFEDFFC88
:010DCC002204
:080DCD007F047E7DDEFEDFFCE9
:010DD50022FB
:080DD6007F057E12DEFEDFFC4A
:010DDE0022F2
:080DDF007F057EA8DEFEDFFCAB
:010DE70022E9
:080DE8007F067E3DDEFEDFFC0C
:010DF00022E0
:080DF1007F067ED3DEFEDFFC6D
:010DF90022D7
:080DFA007F077E68DEFEDFFCCE
:010E020022CD
:080E03007F077EFEDEFEDFFC2E
:010E0B0022C4
:080E0C007F087E93DEFEDFFC8F
:010E140022BB
:080E15007F097E28DEFEDFFCF0
:010E1D0022B2
:080E1E007F0A7E53DEFEDFFCBB
:010E260022A9
:080E27007F0B7E7EDEFEDFFC86
:010E2F0022A0
:080E30007F0C7EA9DEFEDFFC51
:010E38002297
:080E39007F187E55DEFEDFFC90
:010E4100228E
:080E42007F247E01DEFEDFFCCF
:010E4A002285
:080E4B007F2F7EAEDEFEDFFC0E
:010E5300227C
:080E54007F3B7E5ADEFEDFFC4D
:010E5C002273
:100D6800AD07AC06ED1DAE0470011C4E6005120EF9
:040D78003080F122B4
:0B0D9500EF1FAC0670011E4C70F62230
:100CC900D3EF9400EE940040147D6F7C00ED1D700D
:0D0CD900011CED4C70F7EF1F70E61E80E36C
:010CE60022EB
:100D3A00C2A7C2A57F38120D047F0C120D047F06CC
:080D4A00120D047F01020D04EB
:100D0400C2A7C2A5C2A68F807F057E00120CC9D2DD
:0B0D1400A77F057E00120CC9C2A722B9
:100D1F00C2A7C2A5D2A68F807F057E00120CC9D2B2
:0B0D2F00A77F057E00120CC9C2A7229E
:100AD5008D318B328A338934E531BF0104448080FE
:100AE5000244C0FF120D04AB32AA33A934120A8F97
:100AF500FF6017120D1F74012534F534E43533F505
:0B0B0500337F057E00120CC980DD224A
:0E0D7C0081838587898B8D80828486888A8C0E
:090C9C00071F00001222110216CC
:100BF800C2B500C2B600D2B500E4FEEF1392B4EF5E
:100C0800C313FFD2B600C2B6000EBE08EEE4FEED76
:100C18001392B4EDC313FDD2B600C2B6000EBE08DF
:040C2800EEC2B50063
:010C2C0022A5
:100A4500C2B500C2B600D2B500E4FDEF1392B4EF13
:100A5500C313FFD2B600C2B6000DBD08EE00E4FD1B
:100A6500A2B4E433FFC43333335480FCEEC3134CD8
:100A7500FED2B600C2B6000DBD08E5C2B500D2B6BD
:090A850000C2B400D2B400AF06B7
:010A8E002245
:100CA600E4FD7F8E120BF8E4FCEC900D8393FF7449
:100CB6001F2CF8E6FD120BF80CBC07ED7D807F8E2D
:030CC600020BF826
:100D5200E4FBEB900D7C93FF120A45741F2BF8A65F
:050D6200070BBB07EDCB
:010D67002269
:10080C00020CE7E493A3F8E493A34003F68001F20F
:10081C0008DFF48029E493A3F85407240CC8C333ED
:10082C00C4540F4420C8834004F456800146F6DFBC
:10083C00E4800B0102040810204080900C81E47EBF
:10084C00019360BCA3FF543F30E509541FFEE493B1
:10085C00A360010ECF54C025E060A840B8E493A378
:10086C00FAE493A3F8E493A3C8C582C8CAC583CAA3
:10087C00F0A3C8C582C8CAC583CADFE9DEE780BE5B
:010CA500004E
:100A8F00BB010689828A83E0225002E722BBFE0265
:090A9F00E32289828A83E4932298
:100AA800BB010CE58229F582E5833AF583E0225003
:100AB80006E92582F8E622BBFE06E92582F8E2224D
:0D0AC800E58229F582E5833AF583E4932267
:00000001FF
