:0300000002016595
:0C016500787FE4F6D8FD7581090201AC3A
:09020F0000FEFDFBF7EFDFBF7FED
:06022900010800010900BC
:0802210012023012000380FB01
:10000300750902AF091509EF601D750808E508D3E6
:10001300940040EFE50890020F93F5A07F647E0003
:100023001201F1150880E6750902AF091509EF60A1
:100033001D750801E508C3940950EFE50890020F08
:1000430093F5A07F647E001201F1050880E675092F
:1000530002AF091509EF601675A0FF7FF47E011248
:1000630001F1E4F5A07FF47E011201F180E375094B
:1000730002AF091509EF6038750808E50890020F0B
:1000830093F5A07F647E001201F11508E508D3946F
:100093000150E8750801E508C3940850D4E50890B9
:1000A300020F93F5A07F647E001201F1050880E63C
:1000B300750902AF091509EF601675A0FF7FF47E7D
:1000C300011201F1E4F5A07FF47E011201F180E356
:1000D300750902AF091509EF6067750801C3740953
:1000E3009508FFE49400FE740F2FF58274023EF529
:1000F30083E493FFE50890020F935FF5A07F647E8E
:10010300001201F10508E508C3940540D075080302
:10011300E508D3940140BC74099508FFE49400FEFC
:10012300740F2FF58274023EF583E493FFE5089084
:10013300020F935FF5A07F647E001201F115088022
:10014300CF750902AF091509EF601675A0FF7FF49B
:100153007E011201F1E4F5A07FF47E011201F1802A
:02016300E32295
:0402300075A0FF2294
:080218007F0C7EA9DEFEDFFC75
:0102200022BB
:1001F100D3EF9400EE940040147D6F7C00ED1D70F0
:0D020100011CED4C70F7EF1F70E61E80E34E
:01020E0022CD
:10017100020221E493A3F8E493A34003F68001F281
:1001810008DFF48029E493A3F85407240CC8C3338F
:10019100C4540F4420C8834004F456800146F6DF5E
:1001A100E4800B0102040810204080900229E47EC3
:1001B100019360BCA3FF543F30E509541FFEE49353
:1001C100A360010ECF54C025E060A840B8E493A31A
:1001D100FAE493A3F8E493A3C8C582C8CAC583CA45
:1001E100F0A3C8C582C8CAC583CADFE9DEE780BEFD
:01022F0000CE
:00000001FF
