:03000000020003F8
:0C000300787FE4F6D8FD75810902004A00
:06010B00010800010900DB
:0801030012011212008F80FBB3
:10008F007509FEE4F5088509A07F647E001200DC87
:10009F00AF097801EF08800123D8FDF5090508E5C0
:1000AF0008C3940740E075097FE4F5088509A07F30
:1000BF00647E001200DCAF097801EF08800103D8DD
:0D00CF00FDF5090508E508C3940740E0228F
:0401120075A0FF22B3
:0800FA007F0C7EA9DEFEDFFC95
:0101020022DA
:1000DC00D3EF9400EE940040147D6F7C00ED1D7006
:0D00EC00011CED4C70F7EF1F70E61E80E365
:0100F90022E4
:10000F00020103E493A3F8E493A34003F68001F203
:10001F0008DFF48029E493A3F85407240CC8C333F2
:10002F00C4540F4420C8834004F456800146F6DFC1
:10003F00E4800B010204081020408090010BE47E45
:10004F00019360BCA3FF543F30E509541FFEE493B6
:10005F00A360010ECF54C025E060A840B8E493A37D
:10006F00FAE493A3F8E493A3C8C582C8CAC583CAA8
:10007F00F0A3C8C582C8CAC583CADFE9DEE780BE60
:0101110000ED
:00000001FF
