:0300000002000EED
:0C000E00787FE4F6D8FD758108020055EB
:03000700010800ED
:0A00EB001200031200CBD2AF80FE1A
:0400030075A0FF22C3
:1000CB005389F0438901758C3C758AB0D2A9D28CC7
:0100DB002202
:03000B0002009A56
:04009A00C0E0C0D032
:10009E00758C3C758AB00508E508C3940A40057551
:0400AE000800B2A0F4
:0500B200D0D0D0E032C7
:0800F5007F0C7EA9DEFEDFFC9A
:0100FD0022E0
:0E00DC0000007F177ECD7D78DDFEDEFCDFFAB2
:0100EA0022F3
:1000B700AD07AC06ED1DAE0470011C4E60051200C5
:0400C700F580F122AD
:10001A000200EBE493A3F8E493A34003F68001F211
:10002A0008DFF48029E493A3F85407240CC8C333E7
:10003A00C4540F4420C8834004F456800146F6DFB6
:10004A00E4800B0102040810204080900007E47E3F
:10005A00019360BCA3FF543F30E509541FFEE493AB
:10006A00A360010ECF54C025E060A840B8E493A372
:10007A00FAE493A3F8E493A3C8C582C8CAC583CA9D
:10008A00F0A3C8C582C8CAC583CADFE9DEE780BE55
:01000A0000F5
:00000001FF
