:03000000020003F8
:0C000300787FE4F6D8FD75810902004A00
:06010100010800010900E5
:0800F90012010812008F80FBC8
:10008F007509FEE4F5088509A0E50925E04401F5A9
:10009F00097F647E001200D20508E508C39408406A
:1000AF00E57509BFE4F5088509A0E509C313448088
:1000BF00F5097F647E001200D20508E508C3940697
:0300CF0040E522E7
:0401080075A0FF22BD
:0800F0007F0C7EA9DEFEDFFC9F
:0100F80022E5
:1000D200D3EF9400EE940040147D6F7C00ED1D7010
:0D00E200011CED4C70F7EF1F70E61E80E36F
:0100EF0022EE
:10000F000200F9E493A3F8E493A34003F68001F20E
:10001F0008DFF48029E493A3F85407240CC8C333F2
:10002F00C4540F4420C8834004F456800146F6DFC1
:10003F00E4800B0102040810204080900101E47E4F
:10004F00019360BCA3FF543F30E509541FFEE493B6
:10005F00A360010ECF54C025E060A840B8E493A37D
:10006F00FAE493A3F8E493A3C8C582C8CAC583CAA8
:10007F00F0A3C8C582C8CAC583CADFE9DEE780BE60
:0101070000F7
:00000001FF
