:0300000002000EED
:0C000E00787FE4F6D8FD75810A020055E9
:09013E00010A0001090101080099
:0A013400120003120123D2AF80FE77
:0400030075A0FF22C3
:100123005389F0438901758CEC758A78D2A9D28CF6
:0101330022A9
:03000B0002009A56
:0B009A00C0E0C0D075D000C000C0075F
:1000A500758CEC758A780508E508C394144027E536
:1000B50009B40122750800AF0A7480A807088002F8
:1000C500C313D8FCF4F5A0050AE50AD39406400647
:1000D500750A00750900E508C394144024E5097004
:1000E50020F508AF0A04A807088002C333D8FCF43A
:1000F500F5A0050AE50AD394064006750A007509B8
:0101050001F8
:09010600D007D000D0D0D0E032C7
:080148007F0C7EA9DEFEDFFC46
:01015000228C
:10010F00AD07AC06ED1DAE0470011C4E600512016B
:04011F004880F12201
:10001A00020134E493A3F8E493A34003F68001F2C7
:10002A0008DFF48029E493A3F85407240CC8C333E7
:10003A00C4540F4420C8834004F456800146F6DFB6
:10004A00E4800B010204081020408090013EE47E07
:10005A00019360BCA3FF543F30E509541FFEE493AB
:10006A00A360010ECF54C025E060A840B8E493A372
:10007A00FAE493A3F8E493A3C8C582C8CAC583CA9D
:10008A00F0A3C8C582C8CAC583CADFE9DEE780BE55
:0101470000B7
:00000001FF
