:03000000020800F3
:0C080000787FE4F6D8FD75810C020847F3
:030AA000010C0046
:1008C700120AA412098CD2AFE50CD394285007B2B0
:1008D70095120A3680F2E50CD3945050EBB295127C
:0C08E7000A3FE50CB450E1E4F50C80DCA5
:010AA400222F
:10098C005389F0438901758CFF758A06D2A9D28CE4
:01099C002238
:03000B0002099D4A
:09099D00758C3C758AB0050C3222
:050A9B00000000002234
:060A630000007F03DFFE2E
:010A6900226A
:060A6A0000007F06DFFE24
:010A70002263
:060A710000007F09DFFE1A
:010A7700225C
:060A780000007F0CDFFE10
:010A7E002255
:060A7F0000007F0FDFFE06
:010A8500224E
:060A860000007F12DFFEFC
:010A8C002247
:060A8D0000007F15DFFEF2
:010A93002240
:060A940000007F1BDFFEE5
:010A9A002239
:0809A6007F017E92DEFEDFFC02
:0109AE002226
:0809AF007F027E27DEFEDFFC63
:0109B700221D
:0809B8007F027EBDDEFEDFFCC4
:0109C0002214
:0809C1007F037E52DEFEDFFC25
:0109C900220B
:0809CA007F037EE8DEFEDFFC86
:0109D2002202
:0809D3007F047E7DDEFEDFFCE7
:0109DB0022F9
:0809DC007F057E12DEFEDFFC48
:0109E40022F0
:0809E5007F057EA8DEFEDFFCA9
:0109ED0022E7
:0809EE007F067E3DDEFEDFFC0A
:0109F60022DE
:0809F7007F067ED3DEFEDFFC6B
:0109FF0022D5
:080A00007F077E68DEFEDFFCCB
:010A080022CB
:080A09007F077EFEDEFEDFFC2C
:010A110022C2
:080A12007F087E93DEFEDFFC8D
:010A1A0022B9
:080A1B007F097E28DEFEDFFCEE
:010A230022B0
:080A24007F0A7E53DEFEDFFCB9
:010A2C0022A7
:080A2D007F0B7E7EDEFEDFFC84
:010A3500229E
:080A36007F0C7EA9DEFEDFFC4F
:010A3E002295
:080A3F007F187E55DEFEDFFC8E
:010A4700228C
:080A48007F247E01DEFEDFFCCD
:010A50002283
:080A51007F2F7EAEDEFEDFFC0C
:010A5900227A
:080A5A007F3B7E5ADEFEDFFC4B
:010A62002271
:10097800AD07AC06ED1DAE0470011C4E6005120AF1
:040988003680F122A2
:1008F300D3EF9400EE940040147D6F7C00ED1D70E7
:0D090300011CED4C70F7EF1F70E61E80E345
:0109100022C4
:10096000C2A7C2A57F381209117F0C1209117F0698
:080970001209117F01020911B7
:10091100C2A7C2A5C2A68F807F057E001208F3D2AE
:0B092100A77F057E001208F3C2A7228A
:10092C00C2A7C2A5D2A68F807F057E001208F3D283
:0B093C00A77F057E001208F3C2A7226F
:10088C008D088B098A0A890BE508BF010444808016
:10089C000244C0FF120911AB09AA0AA90B1209479D
:1008AC00FF601712092C7401250BF50BE4350AF5C2
:0B08BC000A7F057E001208F380DD2299
:10080C000208C7E493A3F8E493A34003F68001F233
:10081C0008DFF48029E493A3F85407240CC8C333ED
:10082C00C4540F4420C8834004F456800146F6DFBC
:10083C00E4800B0102040810204080900AA0E47EA2
:10084C00019360BCA3FF543F30E509541FFEE493B1
:10085C00A360010ECF54C025E060A840B8E493A378
:10086C00FAE493A3F8E493A3C8C582C8CAC583CAA3
:10087C00F0A3C8C582C8CAC583CADFE9DEE780BE5B
:010AA3000052
:10094700BB010689828A83E0225002E722BBFE02AE
:09095700E32289828A83E49322E1
:00000001FF
