:03000000020800F3
:0C080000787FE4F6D8FD758125020847DA
:0B0B66003F065B4F666D7D077F6F0050
:100AD900011400090B0000000200000000000115CC
:0B0AE9000001160002080000010A00D6
:100A0900120B71D2AF1208EAE51675F00A84F50CDB
:100A1900E51675F00A8485F00DAD0C7F01120A40C8
:100A29007F027E00120ABBAD0D7F02120A6B7F02A4
:070A39007E00120ABB80CE13
:1008EA0020B34C7F147E00120ABB20B342050AE4EF
:1008FA00F508F50920B3180509E509AE08700205DF
:10090A000814C39420EE94035005120C0A80E5E5FE
:10091A000AD394034003750A01E50AB40102D28C92
:10092A00E50AB40202C28CE50AB40303E4F516220E
:090B7100120B5775A0FFD290226F
:08093A008B1D8A1E891F8D2010
:10094200E520D394084003752008752101E521D3E1
:100952009520501CAB1DAA1EA91F852182758300FC
:100962001209A1FDAF21120A6B120BA7052180DD2E
:10097200E521D39408500E7D0AAF21120A6B120BA7
:05098200A7052180EB38
:01098700224D
:08088C008B178A1889198D1AD7
:10089400ED251BFFE433FED3EF9408EE64809480CF
:1008A40040067408951AF51B751C01E51CD3951BAD
:1008B400501EAB17AA18A919851C8275830012094A
:1008C400A1FDAF1A120A6B120BA7051A051C80DBD7
:1008D400E51CD39408500E7D0AAF1C120A6B120B50
:0508E400A7051C80EBDC
:0108E90022EC
:100A6B00E4F580EDD3940A501FEF9407501AC3742A
:100A7B00089F5314E325E025E042148514A00000E1
:090A8B00ED900B6693F58000224A
:100A4000E4F580EDD3940A5021EF9407501CC37451
:100A5000089F5314E325E025E042148514A000000C
:0B0A6000ED900B66934480F5800022AF
:0F0B57005389F0438901758CEC758A78D2A922F5
:03000B00020A9452
:100A9400C0E0C0D0758CEC758A780515E515C39453
:100AA40014400F7515000516E516D39463400375BD
:070AB4001600D0D0D0E032A3
:050C6F0000000000225E
:060C370000007F03DFFE58
:010C3D002294
:060C3E0000007F06DFFE4E
:010C4400228D
:060C450000007F09DFFE44
:010C4B002286
:060C4C0000007F0CDFFE3A
:010C5200227F
:060C530000007F0FDFFE30
:010C59002278
:060C5A0000007F12DFFE26
:010C60002271
:060C610000007F15DFFE1C
:010C6700226A
:060C680000007F1BDFFE0F
:010C6E002263
:080B7A007F017E92DEFEDFFC2C
:010B82002250
:080B83007F027E27DEFEDFFC8D
:010B8B002247
:080B8C007F027EBDDEFEDFFCEE
:010B9400223E
:080B95007F037E52DEFEDFFC4F
:010B9D002235
:080B9E007F037EE8DEFEDFFCB0
:010BA600222C
:080BA7007F047E7DDEFEDFFC11
:010BAF002223
:080BB0007F057E12DEFEDFFC72
:010BB800221A
:080BB9007F057EA8DEFEDFFCD3
:010BC1002211
:080BC2007F067E3DDEFEDFFC34
:010BCA002208
:080BCB007F067ED3DEFEDFFC95
:010BD30022FF
:080BD4007F077E68DEFEDFFCF6
:010BDC0022F6
:080BDD007F077EFEDEFEDFFC57
:010BE50022ED
:080BE6007F087E93DEFEDFFCB8
:010BEE0022E4
:080BEF007F097E28DEFEDFFC19
:010BF70022DB
:080BF8007F0A7E53DEFEDFFCE4
:010C000022D1
:080C01007F0B7E7EDEFEDFFCAE
:010C090022C8
:080C0A007F0C7EA9DEFEDFFC79
:010C120022BF
:080C13007F187E55DEFEDFFCB8
:010C1B0022B6
:080C1C007F247E01DEFEDFFCF7
:010C240022AD
:080C25007F2F7EAEDEFEDFFC36
:010C2D0022A4
:080C2E007F3B7E5ADEFEDFFC75
:010C3600229B
:100B4300AD07AC06ED1DAE0470011C4E6005120C22
:040B53000A80F12201
:100ABB00D3EF9400EE940040147D6F7C00ED1D701D
:0D0ACB00011CED4C70F7EF1F70E61E80E37C
:010AD80022FB
:100B2B00C2A7C2A57F38120AF57F0C120AF57F0601
:080B3B00120AF57F01020AF520
:100AF500C2A7C2A5C2A68F807F057E00120ABBD2FF
:0B0B0500A77F057E00120ABBC2A722DA
:100B1000C2A7C2A5D2A68F807F057E00120ABBD2D3
:0B0B2000A77F057E00120ABBC2A722BF
:1009CE008D228B238A248925E522BF010444808051
:1009DE000244C0FF120AF5AB23AA24A925120988E6
:1009EE00FF6017120B1074012525F525E43524F54B
:0B09FE00247F057E00120ABB80DD2272
:10080C00020A09E493A3F8E493A34003F68001F2EF
:10081C0008DFF48029E493A3F85407240CC8C333ED
:10082C00C4540F4420C8834004F456800146F6DFBC
:10083C00E4800B0102040810204080900AD9E47E69
:10084C00019360BCA3FF543F30E509541FFEE493B1
:10085C00A360010ECF54C025E060A840B8E493A378
:10086C00FAE493A3F8E493A3C8C582C8CAC583CAA3
:10087C00F0A3C8C582C8CAC583CADFE9DEE780BE5B
:010AF4000001
:10098800BB010689828A83E0225002E722BBFE026D
:09099800E32289828A83E49322A0
:1009A100BB010CE58229F582E5833AF583E022500B
:1009B10006E92582F8E622BBFE06E92582F8E22255
:0D09C100E58229F582E5833AF583E493226F
:00000001FF
