:03000000020016E5
:0C001600787FE4F6D8FD75810D02005DD6
:03033B00010C00B2
:10013000120006D2AFE50C60FCB4011675A0FD7F7D
:10014000F47E011201A875A0FF7FF47E011201A8C0
:1001500080E3E50CB402DE75A0FE7FF47E0112019F
:0D016000A875A0FF7FF47E011201A880C8E1
:0C00060075A0FFC288D2A8C28AD2AA222C
:030003000200A256
:1000A200C0E0C0F0C083C082C0D075D000C000C024
:1000B20001C002C003C004C005C006C0077F147E91
:1000C200001201A8E5B020E203750C01D007D006AA
:1000D200D005D004D003D002D001D000D0D0D0823D
:0700E200D083D0F0D0E03222
:030013000200E9FF
:1000E900C0E0C0F0C083C082C0D075D000C000C0DD
:1000F90001C002C003C004C005C006C0077F147E4A
:10010900001201A8E5B020E303750C02D007D00660
:10011900D005D004D003D002D001D000D0D0D082F5
:07012900D083D0F0D0E032DA
:050336000000000022A0
:0602FE0000007F03DFFE9B
:0103040022D6
:0603050000007F06DFFE90
:01030B0022CF
:06030C0000007F09DFFE86
:0103120022C8
:0603130000007F0CDFFE7C
:0103190022C1
:06031A0000007F0FDFFE72
:0103200022BA
:0603210000007F12DFFE68
:0103270022B3
:0603280000007F15DFFE5E
:01032E0022AC
:06032F0000007F1BDFFE51
:0103350022A5
:080241007F017E92DEFEDFFC6E
:010249002292
:08024A007F027E27DEFEDFFCCF
:010252002289
:080253007F027EBDDEFEDFFC30
:01025B002280
:08025C007F037E52DEFEDFFC91
:010264002277
:080265007F037EE8DEFEDFFCF2
:01026D00226E
:08026E007F047E7DDEFEDFFC53
:010276002265
:080277007F057E12DEFEDFFCB4
:01027F00225C
:080280007F057EA8DEFEDFFC15
:010288002253
:080289007F067E3DDEFEDFFC76
:01029100224A
:080292007F067ED3DEFEDFFCD7
:01029A002241
:08029B007F077E68DEFEDFFC38
:0102A3002238
:0802A4007F077EFEDEFEDFFC99
:0102AC00222F
:0802AD007F087E93DEFEDFFCFA
:0102B5002226
:0802B6007F097E28DEFEDFFC5B
:0102BE00221D
:0802BF007F0A7E53DEFEDFFC26
:0102C7002214
:0802C8007F0B7E7EDEFEDFFCF1
:0102D000220B
:0802D1007F0C7EA9DEFEDFFCBC
:0102D9002202
:0802DA007F187E55DEFEDFFCFB
:0102E20022F9
:0802E3007F247E01DEFEDFFC3A
:0102EB0022F0
:0802EC007F2F7EAEDEFEDFFC79
:0102F40022E7
:0802F5007F3B7E5ADEFEDFFCB8
:0102FD0022DE
:10022D00AD07AC06ED1DAE0470011C4E600512024B
:04023D00D180F12259
:1001A800D3EF9400EE940040147D6F7C00ED1D7039
:0D01B800011CED4C70F7EF1F70E61E80E398
:0101C5002217
:10021500C2A7C2A57F381201C67F0C1201C67F0690
:080225001201C67F010201C6AF
:1001C600C2A7C2A5C2A68F807F057E001201A8D253
:0B01D600A77F057E001201A8C2A7222F
:1001E100C2A7C2A5D2A68F807F057E001201A8D228
:0B01F100A77F057E001201A8C2A72214
:10016D008D088B098A0A890BE508BF01044480803C
:10017D000244C0FF1201C6AB09AA0AA90B1201FC69
:10018D00FF60171201E17401250BF50BE4350AF53B
:0B019D000A7F057E001201A880DD2211
:10002200020130E493A3F8E493A34003F68001F2C3
:1000320008DFF48029E493A3F85407240CC8C333DF
:10004200C4540F4420C8834004F456800146F6DFAE
:10005200E4800B010204081020408090033BE47E00
:10006200019360BCA3FF543F30E509541FFEE493A3
:10007200A360010ECF54C025E060A840B8E493A36A
:10008200FAE493A3F8E493A3C8C582C8CAC583CA95
:10009200F0A3C8C582C8CAC583CADFE9DEE780BE4D
:01033E0000BE
:1001FC00BB010689828A83E0225002E722BBFE0201
:09020C00E32289828A83E4932233
:00000001FF
