:03000000020800F3
:0C080000787FE4F6D8FD758127020847D8
:100A42000717000000000000000108000116000264
:0C0A5200090000070CFFFFAA0101AA5BCD
:10092000120BC4120A06D2AF20B02D7F147E001223
:100930000A2420B0231209D4E4F509F50A20B018DE
:10094000050AE50AAE097002050914C39420EE9465
:0D095000035005120B5A80E512088C80CB75
:040BC4007590FF2207
:100A0600758921758CD8758AF0758DFD758BFDD22B
:0E0A16008CD28ED29CC29FD29ED2AFD2AC2286
:0300230002095D72
:10095D00C0E0C0D075D000C000C007751500D2A989
:10096D00D28C30980CC298AF08050874172FF8A6D2
:10097D0099E508B4020DE517B4FF08E518B4FF03B7
:0C098D00750800D007D000D0D0D0E032B8
:10088C00E515C3940A400AC2A9E4F515750B01C21B
:10089C009CE50B6038851A14E4F513E51CB41305BC
:1008AC007511AA8003751155E4F5137F02740C2F92
:1008BC00F8E62513F5130FBF06F3851313851312F2
:0D08CC0085140F1209D4E4F508F50BD29C39
:0108D90022FC
:0809D4007B007A00790C7D071D
:0609DC008B258A26892705
:1009E200C2ACE4FFEFC39D5018AB25AA26A9278FFE
:1009F200827583001208F3F5993099FDC2990F8030
:030A0200E3D2AC90
:010A050022CE
:03000B00020AC125
:090AC100758CD8758AF005153218
:050BBF0000000000220F
:060B870000007F03DFFE09
:010B8D002245
:060B8E0000007F06DFFEFF
:010B9400223E
:060B950000007F09DFFEF5
:010B9B002237
:060B9C0000007F0CDFFEEB
:010BA2002230
:060BA30000007F0FDFFEE1
:010BA9002229
:060BAA0000007F12DFFED7
:010BB0002222
:060BB10000007F15DFFECD
:010BB700221B
:060BB80000007F1BDFFEC0
:010BBE002214
:080ACA007F017E92DEFEDFFCDD
:010AD2002201
:080AD3007F027E27DEFEDFFC3E
:010ADB0022F8
:080ADC007F027EBDDEFEDFFC9F
:010AE40022EF
:080AE5007F037E52DEFEDFFC00
:010AED0022E6
:080AEE007F037EE8DEFEDFFC61
:010AF60022DD
:080AF7007F047E7DDEFEDFFCC2
:010AFF0022D4
:080B00007F057E12DEFEDFFC22
:010B080022CA
:080B09007F057EA8DEFEDFFC83
:010B110022C1
:080B12007F067E3DDEFEDFFCE4
:010B1A0022B8
:080B1B007F067ED3DEFEDFFC45
:010B230022AF
:080B24007F077E68DEFEDFFCA6
:010B2C0022A6
:080B2D007F077EFEDEFEDFFC07
:010B3500229D
:080B36007F087E93DEFEDFFC68
:010B3E002294
:080B3F007F097E28DEFEDFFCC9
:010B4700228B
:080B48007F0A7E53DEFEDFFC94
:010B50002282
:080B51007F0B7E7EDEFEDFFC5F
:010B59002279
:080B5A007F0C7EA9DEFEDFFC2A
:010B62002270
:080B63007F187E55DEFEDFFC69
:010B6B002267
:080B6C007F247E01DEFEDFFCA8
:010B7400225E
:080B75007F2F7EAEDEFEDFFCE7
:010B7D002255
:080B7E007F3B7E5ADEFEDFFC26
:010B8600224C
:100AAD00AD07AC06ED1DAE0470011C4E6005120BBA
:040ABD005A80F12248
:100A2400D3EF9400EE940040147D6F7C00ED1D70B4
:0D0A3400011CED4C70F7EF1F70E61E80E313
:010A41002292
:100A9500C2A7C2A57F38120A5F7F0C120A5F7F06C4
:080AA500120A5F7F01020A5FE3
:100A5F00C2A7C2A5C2A68F807F057E00120A24D22C
:0B0A6F00A77F057E00120A24C2A72208
:100A7A00C2A7C2A5D2A68F807F057E00120A24D201
:0B0A8A00A77F057E00120A24C2A722ED
:100999008D218B228A238924E521BF01044480808B
:1009A9000244C0FF120A5FAB22AA23A9241208DA63
:1009B900FF6017120A7A74012524F524E43523F51A
:0B09C900237F057E00120A2480DD223F
:10080C00020920E493A3F8E493A34003F68001F2D9
:10081C0008DFF48029E493A3F85407240CC8C333ED
:10082C00C4540F4420C8834004F456800146F6DFBC
:10083C00E4800B0102040810204080900A42E47E00
:10084C00019360BCA3FF543F30E509541FFEE493B1
:10085C00A360010ECF54C025E060A840B8E493A378
:10086C00FAE493A3F8E493A3C8C582C8CAC583CAA3
:10087C00F0A3C8C582C8CAC583CADFE9DEE780BE5B
:010A5E000097
:1008DA00BB010689828A83E0225002E722BBFE021C
:0908EA00E32289828A83E493224F
:1008F300BB010CE58229F582E5833AF583E02250BA
:1009030006E92582F8E622BBFE06E92582F8E22203
:0D091300E58229F582E5833AF583E493221D
:00000001FF
