:030000000200C635
:0C00C600787FE4F6D8FD75810F02010D73
:0801F7007F0C7EA9DEFEDFFC97
:0101FF0022DD
:1001D900D3EF9400EE940040147D6F7C00ED1D7008
:0D01E900011CED4C70F7EF1F70E61E80E367
:0101F60022E6
:04020800020D0000E3
:1000030012020020B02C7F147E001201D920B022EE
:10001300B2A0E4F50DF50E20B018050EE50EAE0DF9
:100023007002050D14C39420EE940350051201F7DA
:1000330080E520B12C7F147E001201D920B122B2B9
:10004300A1E4F50DF50E20B118050EE50EAE0D7009
:1000530002050D14C39420EE940350051201F7809A
:10006300E51201528F0FE50FF460987F147E0012A2
:1000730001D9E50FF4608CE4F50DF50EE50F14607E
:100083001114601214601314601424047012B2A0CB
:10009300800EB2A1800AB2A28006B2A38002B2A4EB
:1000A300E50FF47003020006050EE50EAE0D7002B7
:1000B300050D14C394C8EE94004003020006120118
:0300C300F780DDE6
:08020000D2B0D2B175A0FF22BB
:10015200E4F50A750B7FF50C850B90E590540FF5CD
:1001620008640F60517F147E001201D9E508640F04
:100172006041750A01E50824F5601524FE601C142F
:10018200602524077030E50C25E025E0F50980267E
:10019200E50C25E025E004F509801BE50C25E025AA
:1001A200E02402F509800FE50C25E025E02403F5A3
:1001B200098003E4F50AAF0B7801EF08800103D848
:1001C200FDF50B050CE50CC39404408CE50AB40163
:0601D20003AF09227FFFCC
:0101D8002204
:1000D200020003E493A3F8E493A34003F68001F241
:1000E20008DFF48029E493A3F85407240CC8C3332F
:1000F200C4540F4420C8834004F456800146F6DFFE
:10010200E4800B0102040810204080900208E47E83
:10011200019360BCA3FF543F30E509541FFEE493F2
:10012200A360010ECF54C025E060A840B8E493A3B9
:10013200FAE493A3F8E493A3C8C582C8CAC583CAE4
:10014200F0A3C8C582C8CAC583CADFE9DEE780BE9C
:01020C0000F1
:00000001FF
