:030000000208D41F
:0C08D400787FE4F6D8FD75810B0209D591
:0509D5001209DF80FEA5
:0109DF0022F5
:0509DA000000000022F6
:06099D0000007F03DFFEF5
:0109A3002231
:0609A40000007F06DFFEEB
:0109AA00222A
:0609AB0000007F09DFFEE1
:0109B1002223
:0609B20000007F0CDFFED7
:0109B800221C
:0609B90000007F0FDFFECD
:0109BF002215
:0609C00000007F12DFFEC3
:0109C600220E
:0609C70000007F15DFFEB9
:0109CD002207
:0609CE0000007F1BDFFEAC
:0109D4002200
:0808E0007F017E92DEFEDFFCC9
:0108E80022ED
:0808E9007F027E27DEFEDFFC2A
:0108F10022E4
:0808F2007F027EBDDEFEDFFC8B
:0108FA0022DB
:0808FB007F037E52DEFEDFFCEC
:0109030022D1
:080904007F037EE8DEFEDFFC4C
:01090C0022C8
:08090D007F047E7DDEFEDFFCAD
:0109150022BF
:080916007F057E12DEFEDFFC0E
:01091E0022B6
:08091F007F057EA8DEFEDFFC6F
:0109270022AD
:080928007F067E3DDEFEDFFCD0
:0109300022A4
:080931007F067ED3DEFEDFFC31
:01093900229B
:08093A007F077E68DEFEDFFC92
:010942002292
:080943007F077EFEDEFEDFFCF3
:01094B002289
:08094C007F087E93DEFEDFFC54
:010954002280
:080955007F097E28DEFEDFFCB5
:01095D002277
:08095E007F0A7E53DEFEDFFC80
:01096600226E
:080967007F0B7E7EDEFEDFFC4B
:01096F002265
:080970007F0C7EA9DEFEDFFC16
:01097800225C
:080979007F187E55DEFEDFFC55
:010981002253
:080982007F247E01DEFEDFFC94
:01098A00224A
:08098B007F2F7EAEDEFEDFFCD3
:010993002241
:080994007F3B7E5ADEFEDFFC12
:01099C002238
:1008C000AD07AC06ED1DAE0470011C4E60051209AB
:0408D0007080F12221
:10083B00D3EF9400EE940040147D6F7C00ED1D709F
:0D084B00011CED4C70F7EF1F70E61E80E3FE
:01085800227D
:1008A800C2A7C2A57F381208597F0C1208597F06C3
:0808B8001208597F01020859E2
:10085900C2A7C2A5C2A68F807F057E0012083BD21F
:0B086900A77F057E0012083BC2A722FB
:10087400C2A7C2A5D2A68F807F057E0012083BD2F4
:0B088400A77F057E0012083BC2A722E0
:100800008D088B098A0A890BE508BF0104448080A2
:100810000244C0FF120859AB09AA0AA90B12088F9B
:10082000FF60171208747401250BF50BE4350AF507
:0B0830000A7F057E0012083B80DD22DD
:10088F00BB010689828A83E0225002E722BBFE0267
:09089F00E32289828A83E493229A
:00000001FF
