:0A0B86003F065B4F666D7D077F6F31
:0A0B5900010B0002080000010A0071
:0B0B7B00EF1FAC0670011E4C70F6224C
:100B0D00D3EF9400EE940040147D6F7C00ED1D70CA
:0D0B1D00011CED4C70F7EF1F70E61E80E329
:010B2A0022A8
:080B90007F0C7EA9DEFEDFFCF4
:010B9800223A
:1009CD00120B43E516C4540F900B8693F50CE516E8
:1009DD00540F93F50D750E40E515C4540F93F50F97
:1009ED00E515540F93F510751140E514C4540F938C
:0A09FD00F512E514540F93F51322D0
:100A0700120B43E516C4540F900B8693F50CE516AD
:100A1700540F93F50D750E40E515C4540F93F50F5C
:100A2700E515540F93F510751140E514C4540F9351
:0A0A3700F512E514540F93F5132295
:100A4100120B43E518C4540F900B8693F50CE5186F
:100A5100540F93F50D750E40E517C4540F93F50F20
:100A6100E517540F93F510751140E519C4540F9310
:0A0A7100F512E519540F93F5132256
:100A7B00120B43E51AC4540F900B8693F50CE51A31
:100A8B00540F93F50D750E40E518C4540F93F50FE5
:100A9B00E518540F93F510751140E517C4540F93D7
:0A0AAB00F512E517540F93F513221E
:10091300E4FDEDB40800504D900922F82828730235
:10092300093A02093E02094602094A02095202092A
:100933005602095E020962C2A28002D2A2C2A3C207
:10094300A48022C2A28002D2A2D2A3C2A48016C2D1
:10095300A28002D2A2C2A3D2A4800AC2A28002D2DF
:10096300A2D2A3D2A4C374079D240CF8E6F5807F1A
:0F097300647E00120B7BE4F5800DED6408709339
:010982002252
:070B9900D28AD2AAD2AF22DA
:100B2B00120AEA120B991209CD120913E50AD39492
:080B3B000150F6120A0780F1D7
:0300130002088C54
:10088C00C0E0C0F0C083C082C0D075D000C000C032
:10089C0001C002C003C004C005C006C0077F147E9F
:1008AC0000120B0D20B345050A75080075090020D0
:1008BC00B3180509E509AE087002050814C39420A5
:1008CC00EE94035005120B9080E5E50AD394034097
:1008DC0003750A01E50AB40103120A07E50AB4021A
:1008EC0003120A41E50AB40303120A7BD007D006AF
:1008FC00D005D004D003D002D001D000D0D0D0820B
:07090C00D083D0F0D0E032EF
:0E0B6D0081838587898B8D80828486888A8C1F
:090B630007140000122211021611
:100AB500C2B500C2B600D2B500E4FEEF1392B4EFA2
:100AC500C313FFD2B600C2B6000EBE08EEE4FEEDBB
:100AD5001392B4EDC313FDD2B600C2B6000EBE0824
:040AE500EEC2B500A8
:010AE90022EA
:10098300C2B500C2B600D2B500E4FDEF1392B4EFD6
:10099300C313FFD2B600C2B6000DBD08EE00E4FDDE
:1009A300A2B4E433FFC43333335480FCEEC3134C9B
:1009B300FED2B600C2B6000DBD08E5C2B500D2B680
:0909C30000C2B400D2B400AF067A
:0109CC002208
:100AEA00E4FD7F8E120AB5E4FCEC900B7493FF745C
:100AFA00142CF8E6FD120AB50CBC07ED7D807F8E3A
:030B0A00020AB527
:100B4300E4FBEB900B6D93FF12098374142BF8A64F
:050B5300070BBB07EDDC
:010B5800227A
:03000000020800F3
:0C080000787FE4F6D8FD75811A020847E5
:10080C00020B2BE493A3F8E493A34003F68001F2CC
:10081C0008DFF48029E493A3F85407240CC8C333ED
:10082C00C4540F4420C8834004F456800146F6DFBC
:10083C00E4800B0102040810204080900B59E47EE8
:10084C00019360BCA3FF543F30E509541FFEE493B1
:10085C00A360010ECF54C025E060A840B8E493A378
:10086C00FAE493A3F8E493A3C8C582C8CAC583CAA3
:10087C00F0A3C8C582C8CAC583CADFE9DEE780BE5B
:010B6C000088
:00000001FF
