:03000000020003F8
:0C000300787FE4F6D8FD75810D02004AFC
:100162003F065B4F666D7D077F6F00090102000449
:0301720001000287
:03028500010D0068
:1001750012027A7BFF7A01796D7D0812008F80F378
:06027A0075A0FFD29022E6
:08008F008B088A09890A8D0B18
:10009700E50BD394084003750B08E4F50CE50CC396
:1000A700950B501CAB08AA09A90A850C8275830019
:1000B7001200DDFFAD0C12010A1201B2050C80DD42
:1000C700E50CC39408500EAD0C7F0A12010A120109
:0500D700B2050C80EBF6
:0100DC002201
:10010A00E4F580EFD3940A501CED94075017530D71
:10011A00E3ED25E025E0420D850DA00000EF9001FA
:06012A006293F580002243
:05028000000000002257
:0602420000007F03DFFE57
:010248002293
:0602490000007F06DFFE4D
:01024F00228C
:0602500000007F09DFFE43
:010256002285
:0602570000007F0CDFFE39
:01025D00227E
:06025E0000007F0FDFFE2F
:010264002277
:0602650000007F12DFFE25
:01026B002270
:06026C0000007F15DFFE1B
:010272002269
:0602730000007F1BDFFE0E
:010279002262
:080185007F017E92DEFEDFFC2B
:01018D00224F
:08018E007F027E27DEFEDFFC8C
:010196002246
:080197007F027EBDDEFEDFFCED
:01019F00223D
:0801A0007F037E52DEFEDFFC4E
:0101A8002234
:0801A9007F037EE8DEFEDFFCAF
:0101B100222B
:0801B2007F047E7DDEFEDFFC10
:0101BA002222
:0801BB007F057E12DEFEDFFC71
:0101C3002219
:0801C4007F057EA8DEFEDFFCD2
:0101CC002210
:0801CD007F067E3DDEFEDFFC33
:0101D5002207
:0801D6007F067ED3DEFEDFFC94
:0101DE0022FE
:0801DF007F077E68DEFEDFFCF5
:0101E70022F5
:0801E8007F077EFEDEFEDFFC56
:0101F00022EC
:0801F1007F087E93DEFEDFFCB7
:0101F90022E3
:0801FA007F097E28DEFEDFFC18
:0102020022D9
:080203007F0A7E53DEFEDFFCE2
:01020B0022D0
:08020C007F0B7E7EDEFEDFFCAD
:0102140022C7
:080215007F0C7EA9DEFEDFFC78
:01021D0022BE
:08021E007F187E55DEFEDFFCB7
:0102260022B5
:080227007F247E01DEFEDFFCF6
:01022F0022AC
:080230007F2F7EAEDEFEDFFC35
:0102380022A3
:080239007F3B7E5ADEFEDFFC74
:01024100229A
:10014E00AD07AC06ED1DAE0470011C4E600512022B
:04015E001580F122F5
:10013000D3EF9400EE940040147D6F7C00ED1D70B1
:0D014000011CED4C70F7EF1F70E61E80E310
:01014D00228F
:10000F00020175E493A3F8E493A34003F68001F291
:10001F0008DFF48029E493A3F85407240CC8C333F2
:10002F00C4540F4420C8834004F456800146F6DFC1
:10003F00E4800B0102040810204080900285E47ECA
:10004F00019360BCA3FF543F30E509541FFEE493B6
:10005F00A360010ECF54C025E060A840B8E493A37D
:10006F00FAE493A3F8E493A3C8C582C8CAC583CAA8
:10007F00F0A3C8C582C8CAC583CADFE9DEE780BE60
:010288000075
:1000DD00BB010CE58229F582E5833AF583E02250D8
:1000ED0006E92582F8E622BBFE06E92582F8E22222
:0D00FD00E58229F582E5833AF583E493223C
:00000001FF
