:03000000020800F3
:0C080000787FE4F6D8FD758120020847DF
:0809D600C100010D00010C003D
:10088C00120AD9D2AFE50DC394144024300021E4F0
:10089C00F50DAF0C7480A807088002C313D8FCF4C4
:1008AC00F5A0050CE50CD394064005E4F50CC2004C
:1008BC00E50DC3941440CE2000CBE4F50DAF0C0431
:1008CC00A807088002C333D8FCF4F5A0050CE50C8E
:0C08DC00D3940640B0E4F50CD20080A9D3
:030AD9000209BC53
:1009BC005389F0438901758CD8758AF0D2A9D28CF1
:0109CC002208
:03000B000209CD1A
:0909CD00758CD8758AF0050D3215
:050AD4000000000022FB
:060A9C0000007F03DFFEF5
:010AA2002231
:060AA30000007F06DFFEEB
:010AA900222A
:060AAA0000007F09DFFEE1
:010AB0002223
:060AB10000007F0CDFFED7
:010AB700221C
:060AB80000007F0FDFFECD
:010ABE002215
:060ABF0000007F12DFFEC3
:010AC500220E
:060AC60000007F15DFFEB9
:010ACC002207
:060ACD0000007F1BDFFEAC
:010AD3002200
:0809DF007F017E92DEFEDFFCC9
:0109E70022ED
:0809E8007F027E27DEFEDFFC2A
:0109F00022E4
:0809F1007F027EBDDEFEDFFC8B
:0109F90022DB
:0809FA007F037E52DEFEDFFCEC
:010A020022D1
:080A03007F037EE8DEFEDFFC4C
:010A0B0022C8
:080A0C007F047E7DDEFEDFFCAD
:010A140022BF
:080A15007F057E12DEFEDFFC0E
:010A1D0022B6
:080A1E007F057EA8DEFEDFFC6F
:010A260022AD
:080A27007F067E3DDEFEDFFCD0
:010A2F0022A4
:080A30007F067ED3DEFEDFFC31
:010A3800229B
:080A39007F077E68DEFEDFFC92
:010A41002292
:080A42007F077EFEDEFEDFFCF3
:010A4A002289
:080A4B007F087E93DEFEDFFC54
:010A53002280
:080A54007F097E28DEFEDFFCB5
:010A5C002277
:080A5D007F0A7E53DEFEDFFC80
:010A6500226E
:080A66007F0B7E7EDEFEDFFC4B
:010A6E002265
:080A6F007F0C7EA9DEFEDFFC16
:010A7700225C
:080A78007F187E55DEFEDFFC55
:010A80002253
:080A81007F247E01DEFEDFFC94
:010A8900224A
:080A8A007F2F7EAEDEFEDFFCD3
:010A92002241
:080A93007F3B7E5ADEFEDFFC12
:010A9B002238
:1009A800AD07AC06ED1DAE0470011C4E6005120AC1
:0409B8006F80F12239
:10092300D3EF9400EE940040147D6F7C00ED1D70B6
:0D093300011CED4C70F7EF1F70E61E80E315
:010940002294
:10099000C2A7C2A57F381209417F0C1209417F0608
:0809A0001209417F0102094127
:10094100C2A7C2A5C2A68F807F057E00120923D24D
:0B095100A77F057E00120923C2A72229
:10095C00C2A7C2A5D2A68F807F057E00120923D222
:0B096C00A77F057E00120923C2A7220E
:1008E8008D088B098A0A890BE508BF0104448080BA
:1008F8000244C0FF120941AB09AA0AA90B120977E1
:10090800FF601712095C7401250BF50BE4350AF535
:0B0918000A7F057E0012092380DD220B
:10080C0002088CE493A3F8E493A34003F68001F26E
:10081C0008DFF48029E493A3F85407240CC8C333ED
:10082C00C4540F4420C8834004F456800146F6DFBC
:10083C00E4800B01020408102040809009D6E47E6D
:10084C00019360BCA3FF543F30E509541FFEE493B1
:10085C00A360010ECF54C025E060A840B8E493A378
:10086C00FAE493A3F8E493A3C8C582C8CAC583CAA3
:10087C00F0A3C8C582C8CAC583CADFE9DEE780BE5B
:0109DE000018
:10097700BB010689828A83E0225002E722BBFE027E
:09098700E32289828A83E49322B1
:00000001FF
