:03000000020800F3
:0C080000787FE4F6D8FD758120020847DF
:0109260013BD
:03092200010800C9
:10088C0012091CD2AF3000FDC200900926E493B5CA
:10089C00080C7F647E001208B67599AA80E77F6405
:0A08AC007E001208B675995580DB36
:06091C007590FF0208D4F3
:1008D40053980F43985053890F438920758DFD75A4
:0B08E4008BFDD28ED2ACC29FD29E22B0
:03002300020903CC
:10090300309807C298859908D200309902C299326B
:080913007F0C7EA9DEFEDFFC73
:01091B0022B9
:1008EF00AD07AC06ED1DAE0470011C4E600512097C
:0408FF001380F1224F
:1008B600D3EF9400EE940040147D6F7C00ED1D7024
:0D08C600011CED4C70F7EF1F70E61E80E383
:0108D3002202
:10080C0002088CE493A3F8E493A34003F68001F26E
:10081C0008DFF48029E493A3F85407240CC8C333ED
:10082C00C4540F4420C8834004F456800146F6DFBC
:10083C00E4800B0102040810204080900922E47E21
:10084C00019360BCA3FF543F30E509541FFEE493B1
:10085C00A360010ECF54C025E060A840B8E493A378
:10086C00FAE493A3F8E493A3C8C582C8CAC583CAA3
:10087C00F0A3C8C582C8CAC583CADFE9DEE780BE5B
:0109250000D1
:00000001FF
