:03000000020800F3
:0C080000787FE4F6D8FD758122020847DD
:0B0AC1003F065B4F666D7D077F6F00F6
:100A87000111000908000000020000000000011227
:040A97000001130047
:1009B900120ACCD2AF7B007A0079087D021208EACC
:1009C900E512C3941440EEE4F5120513E513D3942C
:1009D900634003E4F513E51375F00A84F509E5139B
:0909E90075F00A8485F00A80CC47
:090ACC00120AB075A0FFD29022BD
:0808EA008B1A8A1B891C8D1D6D
:1008F200E51DD394084003751D08751E01E51ED33E
:10090200951D501CAB1AAA1BA91C851E827583005B
:10091200120951FDAF1E1209F2120B0B051E80DDEA
:10092200E51ED39408500E7D0AAF1E1209F2120B77
:050932000B051E80EB27
:01093700229D
:08088C008B148A1589168D17E3
:10089400ED2518FFE433FED3EF9408EE64809480D2
:1008A400400674089517F518751901E519D39518BC
:1008B400501EAB14AA15A916851982758300120956
:1008C40051FDAF171209F2120B0B0517051980DB46
:1008D400E519D39408500E7D0AAF191209F2120BD0
:0508E4000B051980EB7B
:0108E90022EC
:1009F200E4F580EDD3940A501FEF9407501AC374A4
:100A0200089F5311E325E025E042118511A0000063
:090A1200ED900AC193F580002269
:100AB0005389F0438901758C3C758AB0D2A9D28CD8
:010AC0002213
:03000B00020AD511
:090AD500758C3C758AB0051232E3
:050BD3000000000022FB
:060B9B0000007F03DFFEF5
:010BA1002231
:060BA20000007F06DFFEEB
:010BA800222A
:060BA90000007F09DFFEE1
:010BAF002223
:060BB00000007F0CDFFED7
:010BB600221C
:060BB70000007F0FDFFECD
:010BBD002215
:060BBE0000007F12DFFEC3
:010BC400220E
:060BC50000007F15DFFEB9
:010BCB002207
:060BCC0000007F1BDFFEAC
:010BD2002200
:080ADE007F017E92DEFEDFFCC9
:010AE60022ED
:080AE7007F027E27DEFEDFFC2A
:010AEF0022E4
:080AF0007F027EBDDEFEDFFC8B
:010AF80022DB
:080AF9007F037E52DEFEDFFCEC
:010B010022D1
:080B02007F037EE8DEFEDFFC4C
:010B0A0022C8
:080B0B007F047E7DDEFEDFFCAD
:010B130022BF
:080B14007F057E12DEFEDFFC0E
:010B1C0022B6
:080B1D007F057EA8DEFEDFFC6F
:010B250022AD
:080B26007F067E3DDEFEDFFCD0
:010B2E0022A4
:080B2F007F067ED3DEFEDFFC31
:010B3700229B
:080B38007F077E68DEFEDFFC92
:010B40002292
:080B41007F077EFEDEFEDFFCF3
:010B49002289
:080B4A007F087E93DEFEDFFC54
:010B52002280
:080B53007F097E28DEFEDFFCB5
:010B5B002277
:080B5C007F0A7E53DEFEDFFC80
:010B6400226E
:080B65007F0B7E7EDEFEDFFC4B
:010B6D002265
:080B6E007F0C7EA9DEFEDFFC16
:010B7600225C
:080B77007F187E55DEFEDFFC55
:010B7F002253
:080B80007F247E01DEFEDFFC94
:010B8800224A
:080B89007F2F7EAEDEFEDFFCD3
:010B91002241
:080B92007F3B7E5ADEFEDFFC12
:010B9A002238
:100A9C00AD07AC06ED1DAE0470011C4E6005120BCB
:040AAC006E80F12245
:100A1B00D3EF9400EE940040147D6F7C00ED1D70BD
:0D0A2B00011CED4C70F7EF1F70E61E80E31C
:010A3800229B
:100A6F00C2A7C2A57F38120A397F0C120A397F0636
:080A7F00120A397F01020A3955
:100A3900C2A7C2A5C2A68F807F057E00120A1BD25B
:0B0A4900A77F057E00120A1BC2A72237
:100A5400C2A7C2A5D2A68F807F057E00120A1BD230
:0B0A6400A77F057E00120A1BC2A7221C
:10097E008D1F8B208A218922E51FBF0104448080B0
:10098E000244C0FF120A39AB20AA21A9221209384B
:10099E00FF6017120A5474012522F522E43521F561
:0B09AE00217F057E00120A1B80DD2265
:10080C000209B9E493A3F8E493A34003F68001F240
:10081C0008DFF48029E493A3F85407240CC8C333ED
:10082C00C4540F4420C8834004F456800146F6DFBC
:10083C00E4800B0102040810204080900A87E47EBB
:10084C00019360BCA3FF543F30E509541FFEE493B1
:10085C00A360010ECF54C025E060A840B8E493A378
:10086C00FAE493A3F8E493A3C8C582C8CAC583CAA3
:10087C00F0A3C8C582C8CAC583CADFE9DEE780BE5B
:010A9B00005A
:10093800BB010689828A83E0225002E722BBFE02BD
:09094800E32289828A83E49322F0
:10095100BB010CE58229F582E5833AF583E022505B
:1009610006E92582F8E622BBFE06E92582F8E222A5
:0D097100E58229F582E5833AF583E49322BF
:00000001FF
