:030000000208E50E
:0C08E500787FE4F6D8FD75810B0209B79E
:0709B7001209FBD2AF80FE24
:0309FB000208D41B
:1008D4005389F0438901758CFF758A06D2A9D28C9D
:0108E40022F1
:03000B000208F1F7
:0908F100758CFF758A06B2903285
:0509F6000000000022DA
:0609BE0000007F03DFFED4
:0109C4002210
:0609C50000007F06DFFECA
:0109CB002209
:0609CC0000007F09DFFEC0
:0109D2002202
:0609D30000007F0CDFFEB6
:0109D90022FB
:0609DA0000007F0FDFFEAC
:0109E00022F4
:0609E10000007F12DFFEA2
:0109E70022ED
:0609E80000007F15DFFE98
:0109EE0022E6
:0609EF0000007F1BDFFE8B
:0109F50022DF
:0808FA007F017E92DEFEDFFCAF
:0109020022D2
:080903007F027E27DEFEDFFC0F
:01090B0022C9
:08090C007F027EBDDEFEDFFC70
:0109140022C0
:080915007F037E52DEFEDFFCD1
:01091D0022B7
:08091E007F037EE8DEFEDFFC32
:0109260022AE
:080927007F047E7DDEFEDFFC93
:01092F0022A5
:080930007F057E12DEFEDFFCF4
:01093800229C
:080939007F057EA8DEFEDFFC55
:010941002293
:080942007F067E3DDEFEDFFCB6
:01094A00228A
:08094B007F067ED3DEFEDFFC17
:010953002281
:080954007F077E68DEFEDFFC78
:01095C002278
:08095D007F077EFEDEFEDFFCD9
:01096500226F
:080966007F087E93DEFEDFFC3A
:01096E002266
:08096F007F097E28DEFEDFFC9B
:01097700225D
:080978007F0A7E53DEFEDFFC66
:010980002254
:080981007F0B7E7EDEFEDFFC31
:01098900224B
:08098A007F0C7EA9DEFEDFFCFC
:010992002242
:080993007F187E55DEFEDFFC3B
:01099B002239
:08099C007F247E01DEFEDFFC7A
:0109A4002230
:0809A5007F2F7EAEDEFEDFFCB9
:0109AD002227
:0809AE007F3B7E5ADEFEDFFCF8
:0109B600221E
:1008C000AD07AC06ED1DAE0470011C4E60051209AB
:0408D0008A80F12207
:10083B00D3EF9400EE940040147D6F7C00ED1D709F
:0D084B00011CED4C70F7EF1F70E61E80E3FE
:01085800227D
:1008A800C2A7C2A57F381208597F0C1208597F06C3
:0808B8001208597F01020859E2
:10085900C2A7C2A5C2A68F807F057E0012083BD21F
:0B086900A77F057E0012083BC2A722FB
:10087400C2A7C2A5D2A68F807F057E0012083BD2F4
:0B088400A77F057E0012083BC2A722E0
:100800008D088B098A0A890BE508BF0104448080A2
:100810000244C0FF120859AB09AA0AA90B12088F9B
:10082000FF60171208747401250BF50BE4350AF507
:0B0830000A7F057E0012083B80DD22DD
:10088F00BB010689828A83E0225002E722BBFE0267
:09089F00E32289828A83E493229A
:00000001FF
