:03000000020800F3
:0C080000787FE4F6D8FD758120020847DF
:010B2C0013B5
:1009EE00010B00070C0000000000000001080001D0
:0509FE000A00010907D9
:10088C00120B21D2AF30004FC2007F0A7E0012093A
:10089C0069750CFF750DFF750EAAE4F50F75100147
:1008AC00900B2C93B50B057511AA8003751155E4AB
:1008BC00F50A7F02740C2FF8E6250AF50A0FBF061D
:1008CC00F3850A0A850A127509067F647E001209EF
:1008DC0069E4F508850C99E4F5907FF47E01120922
:0D08EC00697590FF7FF47E01120969809804
:060B21007590FF020A04BA
:100A040075985053890F438920758BFD758DFDD2E0
:040A14008ED2AC22B0
:030023000209349B
:10093400C0E0C0D075D000C000309807C298D20083
:1009440085990B309918C299E508C39509500C058F
:1009540008740C2508F8E6F5998003750800D000A2
:05096400D0D0D0E0320C
:050B27000000000022A7
:060AE90000007F03DFFEA8
:010AEF0022E4
:060AF00000007F06DFFE9E
:010AF60022DD
:060AF70000007F09DFFE94
:010AFD0022D6
:060AFE0000007F0CDFFE8A
:010B040022CE
:060B050000007F0FDFFE7F
:010B0B0022C7
:060B0C0000007F12DFFE75
:010B120022C0
:060B130000007F15DFFE6B
:010B190022B9
:060B1A0000007F1BDFFE5E
:010B200022B2
:080A2C007F017E92DEFEDFFC7B
:010A3400229F
:080A35007F027E27DEFEDFFCDC
:010A3D002296
:080A3E007F027EBDDEFEDFFC3D
:010A4600228D
:080A47007F037E52DEFEDFFC9E
:010A4F002284
:080A50007F037EE8DEFEDFFCFF
:010A5800227B
:080A59007F047E7DDEFEDFFC60
:010A61002272
:080A62007F057E12DEFEDFFCC1
:010A6A002269
:080A6B007F057EA8DEFEDFFC22
:010A73002260
:080A74007F067E3DDEFEDFFC83
:010A7C002257
:080A7D007F067ED3DEFEDFFCE4
:010A8500224E
:080A86007F077E68DEFEDFFC45
:010A8E002245
:080A8F007F077EFEDEFEDFFCA6
:010A9700223C
:080A98007F087E93DEFEDFFC07
:010AA0002233
:080AA1007F097E28DEFEDFFC68
:010AA900222A
:080AAA007F0A7E53DEFEDFFC33
:010AB2002221
:080AB3007F0B7E7EDEFEDFFCFE
:010ABB002218
:080ABC007F0C7EA9DEFEDFFCC9
:010AC400220F
:080AC5007F187E55DEFEDFFC08
:010ACD002206
:080ACE007F247E01DEFEDFFC47
:010AD60022FD
:080AD7007F2F7EAEDEFEDFFC86
:010ADF0022F4
:080AE0007F3B7E5ADEFEDFFCC5
:010AE80022EB
:100A1800AD07AC06ED1DAE0470011C4E6005120A50
:040A2800BC80F1227B
:10096900D3EF9400EE940040147D6F7C00ED1D7070
:0D097900011CED4C70F7EF1F70E61E80E3CF
:01098600224E
:1009D600C2A7C2A57F381209877F0C1209877F0636
:0809E6001209877F0102098755
:10098700C2A7C2A5C2A68F807F057E00120969D2C1
:0B099700A77F057E00120969C2A7229D
:1009A200C2A7C2A5D2A68F807F057E00120969D296
:0B09B200A77F057E00120969C2A72282
:1008F9008D138B148A158916E513BF010444808072
:100909000244C0FF120987AB14AA15A9161209BD22
:10091900FF60171209A274012516F516E43515F5BD
:0B092900157F057E0012096980DD22A9
:10080C0002088CE493A3F8E493A34003F68001F26E
:10081C0008DFF48029E493A3F85407240CC8C333ED
:10082C00C4540F4420C8834004F456800146F6DFBC
:10083C00E4800B01020408102040809009EEE47E55
:10084C00019360BCA3FF543F30E509541FFEE493B1
:10085C00A360010ECF54C025E060A840B8E493A378
:10086C00FAE493A3F8E493A3C8C582C8CAC583CAA3
:10087C00F0A3C8C582C8CAC583CADFE9DEE780BE5B
:010A030000F2
:1009BD00BB010689828A83E0225002E722BBFE0238
:0909CD00E32289828A83E493226B
:00000001FF
